{
  "contractName": "MeetupEvent",
  "abi": [
    {
      "constant": true,
      "inputs": [],
      "name": "creator",
      "outputs": [
        {
          "name": "",
          "type": "address"
        }
      ],
      "payable": false,
      "stateMutability": "view",
      "type": "function"
    },
    {
      "constant": true,
      "inputs": [],
      "name": "costOfEvent",
      "outputs": [
        {
          "name": "",
          "type": "uint256"
        }
      ],
      "payable": false,
      "stateMutability": "view",
      "type": "function"
    },
    {
      "constant": true,
      "inputs": [],
      "name": "owner",
      "outputs": [
        {
          "name": "",
          "type": "address"
        }
      ],
      "payable": false,
      "stateMutability": "view",
      "type": "function"
    },
    {
      "constant": true,
      "inputs": [
        {
          "name": "",
          "type": "uint256"
        }
      ],
      "name": "rsvpList",
      "outputs": [
        {
          "name": "",
          "type": "address"
        }
      ],
      "payable": false,
      "stateMutability": "view",
      "type": "function"
    },
    {
      "constant": true,
      "inputs": [],
      "name": "eventCap",
      "outputs": [
        {
          "name": "",
          "type": "uint256"
        }
      ],
      "payable": false,
      "stateMutability": "view",
      "type": "function"
    },
    {
      "constant": true,
      "inputs": [],
      "name": "dateOfEvent",
      "outputs": [
        {
          "name": "",
          "type": "uint256"
        }
      ],
      "payable": false,
      "stateMutability": "view",
      "type": "function"
    },
    {
      "constant": true,
      "inputs": [
        {
          "name": "",
          "type": "address"
        }
      ],
      "name": "rsvpData",
      "outputs": [
        {
          "name": "balance",
          "type": "uint256"
        },
        {
          "name": "name",
          "type": "string"
        },
        {
          "name": "isRsvped",
          "type": "bool"
        }
      ],
      "payable": false,
      "stateMutability": "view",
      "type": "function"
    },
    {
      "inputs": [
        {
          "name": "_priceInWei",
          "type": "uint256"
        },
        {
          "name": "_owner",
          "type": "address"
        },
        {
          "name": "_cap",
          "type": "uint256"
        },
        {
          "name": "_dateAsUnixTimestamp",
          "type": "uint256"
        }
      ],
      "payable": false,
      "stateMutability": "nonpayable",
      "type": "constructor"
    },
    {
      "anonymous": false,
      "inputs": [
        {
          "indexed": true,
          "name": "_from",
          "type": "address"
        },
        {
          "indexed": false,
          "name": "_name",
          "type": "string"
        }
      ],
      "name": "EventRsvp",
      "type": "event"
    },
    {
      "anonymous": false,
      "inputs": [
        {
          "indexed": true,
          "name": "_from",
          "type": "address"
        },
        {
          "indexed": false,
          "name": "_value",
          "type": "uint256"
        }
      ],
      "name": "EventOwnerWithdrawal",
      "type": "event"
    },
    {
      "anonymous": false,
      "inputs": [
        {
          "indexed": true,
          "name": "_sender",
          "type": "address"
        },
        {
          "indexed": false,
          "name": "error",
          "type": "bytes32"
        }
      ],
      "name": "Error",
      "type": "event"
    },
    {
      "constant": true,
      "inputs": [
        {
          "name": "_address",
          "type": "address"
        }
      ],
      "name": "isRsvped",
      "outputs": [
        {
          "name": "isIndeed",
          "type": "bool"
        }
      ],
      "payable": false,
      "stateMutability": "view",
      "type": "function"
    },
    {
      "constant": false,
      "inputs": [
        {
          "name": "_name",
          "type": "string"
        }
      ],
      "name": "rsvpMe",
      "outputs": [],
      "payable": false,
      "stateMutability": "nonpayable",
      "type": "function"
    },
    {
      "constant": true,
      "inputs": [],
      "name": "getAttendeeAddresses",
      "outputs": [
        {
          "name": "",
          "type": "address[]"
        }
      ],
      "payable": false,
      "stateMutability": "view",
      "type": "function"
    },
    {
      "constant": true,
      "inputs": [
        {
          "name": "_address",
          "type": "address"
        }
      ],
      "name": "getAttendeeInfo",
      "outputs": [
        {
          "name": "",
          "type": "uint256"
        },
        {
          "name": "",
          "type": "string"
        }
      ],
      "payable": false,
      "stateMutability": "view",
      "type": "function"
    },
    {
      "constant": false,
      "inputs": [],
      "name": "ownerWithdrawal",
      "outputs": [],
      "payable": false,
      "stateMutability": "nonpayable",
      "type": "function"
    }
  ],
  "bytecode": "0x6060604052341561000f57600080fd5b604051608080610d6e83398101604052808051906020019091908051906020019091908051906020019091908051906020019091905050428111151561005457600080fd5b336000806101000a81548173ffffffffffffffffffffffffffffffffffffffff021916908373ffffffffffffffffffffffffffffffffffffffff1602179055508360038190555082600160006101000a81548173ffffffffffffffffffffffffffffffffffffffff021916908373ffffffffffffffffffffffffffffffffffffffff160217905550816002819055508060048190555050505050610c71806100fd6000396000f3006060604052600436106100ba576000357c0100000000000000000000000000000000000000000000000000000000900463ffffffff16806302d05d3f146100bf57806310c566e5146101145780631dd541c71461013d5780638da5cb5b1461019a5780639063c2f6146101ef578063a3dcb51e14610252578063ba46cfe91461027b578063bb387ae6146102a4578063d248e2cf1461035d578063e93fef0c146103ae578063efd64a7b1461048f578063f27a0447146104f9575b600080fd5b34156100ca57600080fd5b6100d261050e565b604051808273ffffffffffffffffffffffffffffffffffffffff1673ffffffffffffffffffffffffffffffffffffffff16815260200191505060405180910390f35b341561011f57600080fd5b610127610533565b6040518082815260200191505060405180910390f35b341561014857600080fd5b610198600480803590602001908201803590602001908080601f01602080910402602001604051908101604052809392919081815260200183838082843782019150505050505091905050610539565b005b34156101a557600080fd5b6101ad610726565b604051808273ffffffffffffffffffffffffffffffffffffffff1673ffffffffffffffffffffffffffffffffffffffff16815260200191505060405180910390f35b34156101fa57600080fd5b610210600480803590602001909190505061074c565b604051808273ffffffffffffffffffffffffffffffffffffffff1673ffffffffffffffffffffffffffffffffffffffff16815260200191505060405180910390f35b341561025d57600080fd5b61026561078b565b6040518082815260200191505060405180910390f35b341561028657600080fd5b61028e610791565b6040518082815260200191505060405180910390f35b34156102af57600080fd5b6102db600480803573ffffffffffffffffffffffffffffffffffffffff16906020019091905050610797565b6040518083815260200180602001828103825283818151815260200191508051906020019080838360005b83811015610321578082015181840152602081019050610306565b50505050905090810190601f16801561034e5780820380516001836020036101000a031916815260200191505b50935050505060405180910390f35b341561036857600080fd5b610394600480803573ffffffffffffffffffffffffffffffffffffffff169060200190919050506108cb565b604051808215151515815260200191505060405180910390f35b34156103b957600080fd5b6103e5600480803573ffffffffffffffffffffffffffffffffffffffff16906020019091905050610924565b60405180848152602001806020018315151515815260200182810382528481815460018160011615610100020316600290048152602001915080546001816001161561010002031660029004801561047e5780601f106104535761010080835404028352916020019161047e565b820191906000526020600020905b81548152906001019060200180831161046157829003601f168201915b505094505050505060405180910390f35b341561049a57600080fd5b6104a261095a565b6040518080602001828103825283818151815260200191508051906020019060200280838360005b838110156104e55780820151818401526020810190506104ca565b505050509050019250505060405180910390f35b341561050457600080fd5b61050c6109ee565b005b6000809054906101000a900473ffffffffffffffffffffffffffffffffffffffff1681565b60035481565b600060025414151561055b5760025460068054905010151561055a57600080fd5b5b80600560003373ffffffffffffffffffffffffffffffffffffffff1673ffffffffffffffffffffffffffffffffffffffff16815260200190815260200160002060010190805190602001906105b1929190610b4c565b506001600560003373ffffffffffffffffffffffffffffffffffffffff1673ffffffffffffffffffffffffffffffffffffffff16815260200190815260200160002060020160006101000a81548160ff021916908315150217905550600680548060010182816106219190610bcc565b9160005260206000209001600033909190916101000a81548173ffffffffffffffffffffffffffffffffffffffff021916908373ffffffffffffffffffffffffffffffffffffffff160217905550503373ffffffffffffffffffffffffffffffffffffffff167f9188fefae6bbbec8414bba3f09be53e05cc04f33093f2b28976ba1e3d1b8fdeb826040518080602001828103825283818151815260200191508051906020019080838360005b838110156106e95780820151818401526020810190506106ce565b50505050905090810190601f1680156107165780820380516001836020036101000a031916815260200191505b509250505060405180910390a250565b600160009054906101000a900473ffffffffffffffffffffffffffffffffffffffff1681565b60068181548110151561075b57fe5b90600052602060002090016000915054906101000a900473ffffffffffffffffffffffffffffffffffffffff1681565b60025481565b60045481565b60006107a1610bf8565b600560008473ffffffffffffffffffffffffffffffffffffffff1673ffffffffffffffffffffffffffffffffffffffff16815260200190815260200160002060000154600560008573ffffffffffffffffffffffffffffffffffffffff1673ffffffffffffffffffffffffffffffffffffffff168152602001908152602001600020600101808054600181600116156101000203166002900480601f0160208091040260200160405190810160405280929190818152602001828054600181600116156101000203166002900480156108bb5780601f10610890576101008083540402835291602001916108bb565b820191906000526020600020905b81548152906001019060200180831161089e57829003601f168201915b5050505050905091509150915091565b6000600560008373ffffffffffffffffffffffffffffffffffffffff1673ffffffffffffffffffffffffffffffffffffffff16815260200190815260200160002060020160009054906101000a900460ff169050919050565b600560205280600052604060002060009150905080600001549080600101908060020160009054906101000a900460ff16905083565b610962610c0c565b60068054806020026020016040519081016040528092919081815260200182805480156109e457602002820191906000526020600020905b8160009054906101000a900473ffffffffffffffffffffffffffffffffffffffff1673ffffffffffffffffffffffffffffffffffffffff168152602001906001019080831161099a575b5050505050905090565b60006004544210151515610a0157600080fd5b3373ffffffffffffffffffffffffffffffffffffffff16600160009054906101000a900473ffffffffffffffffffffffffffffffffffffffff1673ffffffffffffffffffffffffffffffffffffffff16141515610a5d57600080fd5b3073ffffffffffffffffffffffffffffffffffffffff16319050600160009054906101000a900473ffffffffffffffffffffffffffffffffffffffff1673ffffffffffffffffffffffffffffffffffffffff166108fc829081150290604051600060405180830381858888f193505050501515610ad957600080fd5b600160009054906101000a900473ffffffffffffffffffffffffffffffffffffffff1673ffffffffffffffffffffffffffffffffffffffff167f2687f3ebe7af4e9bc31590fc4b8d7ddc978afe768e4a6268fee90f8edc04847b826040518082815260200191505060405180910390a250565b828054600181600116156101000203166002900490600052602060002090601f016020900481019282601f10610b8d57805160ff1916838001178555610bbb565b82800160010185558215610bbb579182015b82811115610bba578251825591602001919060010190610b9f565b5b509050610bc89190610c20565b5090565b815481835581811511610bf357818360005260206000209182019101610bf29190610c20565b5b505050565b602060405190810160405280600081525090565b602060405190810160405280600081525090565b610c4291905b80821115610c3e576000816000905550600101610c26565b5090565b905600a165627a7a72305820a89125dc6d9d17ef9a53ed7f0dce3ccbad2c8dbf06ec40298e47fe2a5a2fe8b50029",
  "source": "pragma solidity ^0.4.0;\n\ncontract MeetupEvent {\n\n    address public creator;\n    address public owner;\n    uint public eventCap;\n    uint public costOfEvent;\n    uint public dateOfEvent;\n    struct rsvpSingle {\n        uint balance;\n        string name;\n        bool isRsvped;\n    }\n    mapping (address => rsvpSingle) public rsvpData;\n    address[] public rsvpList;\n\n    event EventRsvp(\n        address indexed _from,\n        string _name\n        );\n\n    event EventOwnerWithdrawal(\n        address indexed _from,\n        uint _value\n        );\n\n    event Error(address indexed _sender, bytes32 error);\n\n    modifier mustHaveSpace() {\n        if(eventCap != 0) require(rsvpList.length < eventCap);\n        _;\n    }\n\n    modifier isEnded() {\n        // require(now >= dateOfEvent + 3 hours);\n        require(now >= dateOfEvent); // while testing...\n        _;\n    }\n\n    modifier isOwner() {\n        require(owner == msg.sender);\n        _;\n    }\n\n    function isRsvped(address _address) public view returns(bool isIndeed) {\n      return rsvpData[_address].isRsvped;\n    }\n\n    function MeetupEvent(uint _priceInWei,\n                        address _owner,\n                        uint _cap,\n                        uint _dateAsUnixTimestamp)\n      public {\n        require(_dateAsUnixTimestamp > now);\n        creator = msg.sender;\n        costOfEvent = _priceInWei;\n        owner = _owner;\n        eventCap = _cap;\n        dateOfEvent = _dateAsUnixTimestamp;\n    }\n\n    function rsvpMe(string _name) public mustHaveSpace {\n        rsvpData[msg.sender].name = _name;\n        rsvpData[msg.sender].isRsvped = true;\n        rsvpList.push(msg.sender);\n        EventRsvp(msg.sender, _name);\n    }\n\n    function getAttendeeAddresses() view public returns (address[]) {\n        return rsvpList;\n    }\n\n    function getAttendeeInfo(address _address) view public returns (uint, string) {\n        return (rsvpData[_address].balance, rsvpData[_address].name);\n    }\n\n    function ownerWithdrawal() public isEnded isOwner {\n        uint _balance = this.balance;\n        owner.transfer(_balance);\n        EventOwnerWithdrawal(owner, _balance);\n    }\n}\n",
  "sourcePath": "/Users/kamescg/Documents/Projects/uPort/code/projects/hackathon-minimal/contracts/MeetupEvent.sol",
  "compiler": {
    "name": "solc",
    "version": "0.4.19+commit.c4cbbb05.Emscripten.clang"
  },
  "schemaVersion": "2.0.0",
  "updatedAt": "2018-04-07T23:16:47.469Z"
}