{
  "contractName": "Verifier",
  "abi": [
    {
      "constant": true,
      "inputs": [],
      "name": "trust",
      "outputs": [
        {
          "name": "",
          "type": "address"
        }
      ],
      "payable": false,
      "stateMutability": "view",
      "type": "function"
    },
    {
      "inputs": [
        {
          "name": "_trust",
          "type": "address"
        }
      ],
      "payable": false,
      "stateMutability": "nonpayable",
      "type": "constructor"
    },
    {
      "constant": false,
      "inputs": [
        {
          "name": "permission",
          "type": "string"
        },
        {
          "name": "msgHash",
          "type": "bytes32"
        },
        {
          "name": "v",
          "type": "uint8"
        },
        {
          "name": "r",
          "type": "bytes32"
        },
        {
          "name": "s",
          "type": "bytes32"
        }
      ],
      "name": "isInividual",
      "outputs": [],
      "payable": false,
      "stateMutability": "nonpayable",
      "type": "function"
    }
  ],
  "bytecode": "0x608060405234801561001057600080fd5b506040516020806108b683398101806040528101908080519060200190929190505050806000806101000a81548173ffffffffffffffffffffffffffffffffffffffff021916908373ffffffffffffffffffffffffffffffffffffffff16021790555050610833806100836000396000f30060806040526004361061004c576000357c0100000000000000000000000000000000000000000000000000000000900463ffffffff1680636f9fdd6614610051578063d344343d146100a8575b600080fd5b34801561005d57600080fd5b50610066610148565b604051808273ffffffffffffffffffffffffffffffffffffffff1673ffffffffffffffffffffffffffffffffffffffff16815260200191505060405180910390f35b3480156100b457600080fd5b50610146600480360381019080803590602001908201803590602001908080601f01602080910402602001604051908101604052809392919081815260200183838082843782019150505050505091929192908035600019169060200190929190803560ff1690602001909291908035600019169060200190929190803560001916906020019092919050505061016d565b005b6000809054906101000a900473ffffffffffffffffffffffffffffffffffffffff1681565b6101756107ed565b600061018087610218565b91506101e26101dd6101d86101c96040805190810160405280600181526020017f7c00000000000000000000000000000000000000000000000000000000000000815250610218565b8561024690919063ffffffff16565b610260565b6102c2565b90506101ed8161053b565b15156101f857600080fd5b61020486868686610542565b151561020f57600080fd5b50505050505050565b6102206107ed565b600060208301905060408051908101604052808451815260200182815250915050919050565b61024e6107ed565b61025983838361061e565b5092915050565b606080600083600001516040519080825280601f01601f19166020018201604052801561029c5781602001602082028038833980820191505090505b5091506020820190506102b881856020015186600001516106bc565b8192505050919050565b6000606060008060008086945060009350600290505b602a81101561052e576101008402935084818151811015156102f657fe5b9060200101517f010000000000000000000000000000000000000000000000000000000000000090047f0100000000000000000000000000000000000000000000000000000000000000027f010000000000000000000000000000000000000000000000000000000000000090049250846001820181518110151561037757fe5b9060200101517f010000000000000000000000000000000000000000000000000000000000000090047f0100000000000000000000000000000000000000000000000000000000000000027f01000000000000000000000000000000000000000000000000000000000000009004915060618373ffffffffffffffffffffffffffffffffffffffff1610158015610425575060668373ffffffffffffffffffffffffffffffffffffffff1611155b1561043557605783039250610480565b60308373ffffffffffffffffffffffffffffffffffffffff1610158015610473575060398373ffffffffffffffffffffffffffffffffffffffff1611155b1561047f576030830392505b5b60618273ffffffffffffffffffffffffffffffffffffffff16101580156104be575060668273ffffffffffffffffffffffffffffffffffffffff1611155b156104ce57605782039150610519565b60308273ffffffffffffffffffffffffffffffffffffffff161015801561050c575060398273ffffffffffffffffffffffffffffffffffffffff1611155b15610518576030820391505b5b816010840201840193506002810190506102d8565b8395505050505050919050565b6000919050565b60008060009054906101000a900473ffffffffffffffffffffffffffffffffffffffff1673ffffffffffffffffffffffffffffffffffffffff16600186868686604051600081526020016040526040518085600019166000191681526020018460ff1660ff1681526020018360001916600019168152602001826000191660001916815260200194505050505060206040516020810390808403906000865af11580156105f3573d6000803e3d6000fd5b5050506020604051035173ffffffffffffffffffffffffffffffffffffffff16149050949350505050565b6106266107ed565b60006106448560000151866020015186600001518760200151610707565b905084602001518360200181815250508460200151810383600001818152505084600001518560200151018114156106865760008560000181815250506106b1565b8360000151836000015101856000018181510391508181525050836000015181018560200181815250505b829150509392505050565b60005b6020821015156106e457825184526020840193506020830192506020820391506106bf565b6001826020036101000a0390508019835116818551168181178652505050505050565b60008060008060008060008060008b97508c8b1115156107d75760208b1115156107915760018b60200360080260020a03196001029550858a511694508a8d8d010393508588511692505b84600019168360001916141515610789578388101515610776578c8c0198506107dd565b8780600101985050858851169250610752565b8798506107dd565b8a8a209150600096505b8a8d03871115156107d6578a882090508060001916826000191614156107c3578798506107dd565b600188019750868060010197505061079b565b5b8c8c0198505b5050505050505050949350505050565b6040805190810160405280600081526020016000815250905600a165627a7a723058205635dc8848af9fb2978da63eda64fcad809d60cd5da18c6ffcd36838ef24eb2e0029",
  "source": "pragma solidity ^0.4.16;\nimport \"./strings.sol\";\n\ncontract Verifier {\n    using strings for *;\n\n    // Public Variables\n    address public trust;\n\n    // Constructor\n    function Verifier(address _trust) public {\n        trust = _trust;\n    }\n\n    function recoverAddr(bytes32 msgHash, uint8 v, bytes32 r, bytes32 s) private returns (address) {\n        return ecrecover(msgHash, v, r, s);\n    }\n\n    function isTrusted(bytes32 msgHash, uint8 v, bytes32 r, bytes32 s) private returns (bool) {\n        return ecrecover(msgHash, v, r, s) == trust;\n    }\n\n    function isMatch(address _address) private returns(bool) {\n        _address == msg.sender;\n    }\n    \n     function isInividual(string permission, bytes32 msgHash, uint8 v, bytes32 r, bytes32 s) public {\n        var permissions = permission.toSlice();\n        var sender = parseAddr(permissions.split(\"|\".toSlice()).toString());\n        require(isMatch(sender));\n        require(isTrusted(msgHash, v, r, s));\n    }\n\n    function parseAddr(string _a) internal returns (address){\n        bytes memory tmp = bytes(_a);\n        uint160 iaddr = 0;\n        uint160 b1;\n        uint160 b2;\n        for (uint i=2; i<2+2*20; i+=2){\n            iaddr *= 256;\n            b1 = uint160(tmp[i]);\n            b2 = uint160(tmp[i+1]);\n            if ((b1 >= 97)&&(b1 <= 102)) b1 -= 87;\n            else if ((b1 >= 48)&&(b1 <= 57)) b1 -= 48;\n            if ((b2 >= 97)&&(b2 <= 102)) b2 -= 87;\n            else if ((b2 >= 48)&&(b2 <= 57)) b2 -= 48;\n            iaddr += (b1*16+b2);\n        }\n        return address(iaddr);\n    }\n\n}\n",
  "sourcePath": "/Users/admin/Documents/projects/unity/code/pop/contracts/Verifier.sol",
  "compiler": {
    "name": "solc",
    "version": "0.4.24+commit.e67f0147.Emscripten.clang"
  },
  "schemaVersion": "2.0.1",
  "updatedAt": "2018-09-08T14:03:52.587Z"
}